{
  "_format": "hh-sol-artifact-1",
  "contractName": "Multisig",
  "sourceName": "contracts/Multisig.sol",
  "abi": [
    {
      "inputs": [
        {
          "internalType": "address[]",
          "name": "_owners",
          "type": "address[]"
        },
        {
          "internalType": "uint256",
          "name": "_numConfirmationsRequired",
          "type": "uint256"
        }
      ],
      "stateMutability": "nonpayable",
      "type": "constructor"
    },
    {
      "anonymous": false,
      "inputs": [
        {
          "indexed": true,
          "internalType": "address",
          "name": "owner",
          "type": "address"
        },
        {
          "indexed": true,
          "internalType": "uint256",
          "name": "txIndex",
          "type": "uint256"
        }
      ],
      "name": "ConfirmTransaction",
      "type": "event"
    },
    {
      "anonymous": false,
      "inputs": [
        {
          "indexed": true,
          "internalType": "address",
          "name": "sender",
          "type": "address"
        },
        {
          "indexed": false,
          "internalType": "uint256",
          "name": "amount",
          "type": "uint256"
        },
        {
          "indexed": false,
          "internalType": "uint256",
          "name": "balance",
          "type": "uint256"
        }
      ],
      "name": "Deposit",
      "type": "event"
    },
    {
      "anonymous": false,
      "inputs": [
        {
          "indexed": true,
          "internalType": "address",
          "name": "owner",
          "type": "address"
        },
        {
          "indexed": true,
          "internalType": "uint256",
          "name": "txIndex",
          "type": "uint256"
        }
      ],
      "name": "ExecuteTransaction",
      "type": "event"
    },
    {
      "anonymous": false,
      "inputs": [
        {
          "indexed": true,
          "internalType": "address",
          "name": "owner",
          "type": "address"
        },
        {
          "indexed": true,
          "internalType": "uint256",
          "name": "txIndex",
          "type": "uint256"
        }
      ],
      "name": "RevokeConfirmation",
      "type": "event"
    },
    {
      "anonymous": false,
      "inputs": [
        {
          "indexed": true,
          "internalType": "address",
          "name": "owner",
          "type": "address"
        },
        {
          "indexed": true,
          "internalType": "uint256",
          "name": "txIndex",
          "type": "uint256"
        },
        {
          "indexed": true,
          "internalType": "address",
          "name": "to",
          "type": "address"
        },
        {
          "indexed": false,
          "internalType": "uint256",
          "name": "value",
          "type": "uint256"
        },
        {
          "indexed": false,
          "internalType": "bytes",
          "name": "data",
          "type": "bytes"
        }
      ],
      "name": "SubmitTransaction",
      "type": "event"
    },
    {
      "inputs": [],
      "name": "MAX_OWNER_COUNT",
      "outputs": [
        {
          "internalType": "uint256",
          "name": "",
          "type": "uint256"
        }
      ],
      "stateMutability": "view",
      "type": "function"
    },
    {
      "inputs": [
        {
          "internalType": "uint256",
          "name": "_txIndex",
          "type": "uint256"
        }
      ],
      "name": "confirmTransaction",
      "outputs": [],
      "stateMutability": "nonpayable",
      "type": "function"
    },
    {
      "inputs": [
        {
          "internalType": "uint256",
          "name": "_txIndex",
          "type": "uint256"
        }
      ],
      "name": "executeTransaction",
      "outputs": [],
      "stateMutability": "nonpayable",
      "type": "function"
    },
    {
      "inputs": [],
      "name": "getOwners",
      "outputs": [
        {
          "internalType": "address[]",
          "name": "",
          "type": "address[]"
        }
      ],
      "stateMutability": "view",
      "type": "function"
    },
    {
      "inputs": [
        {
          "internalType": "uint256",
          "name": "_txIndex",
          "type": "uint256"
        }
      ],
      "name": "getTransaction",
      "outputs": [
        {
          "internalType": "address",
          "name": "to",
          "type": "address"
        },
        {
          "internalType": "uint256",
          "name": "value",
          "type": "uint256"
        },
        {
          "internalType": "bytes",
          "name": "data",
          "type": "bytes"
        },
        {
          "internalType": "bool",
          "name": "executed",
          "type": "bool"
        },
        {
          "internalType": "uint256",
          "name": "numConfirmations",
          "type": "uint256"
        }
      ],
      "stateMutability": "view",
      "type": "function"
    },
    {
      "inputs": [],
      "name": "getTransactionCount",
      "outputs": [
        {
          "internalType": "uint256",
          "name": "",
          "type": "uint256"
        }
      ],
      "stateMutability": "view",
      "type": "function"
    },
    {
      "inputs": [
        {
          "internalType": "uint256",
          "name": "",
          "type": "uint256"
        },
        {
          "internalType": "address",
          "name": "",
          "type": "address"
        }
      ],
      "name": "isConfirmed",
      "outputs": [
        {
          "internalType": "bool",
          "name": "",
          "type": "bool"
        }
      ],
      "stateMutability": "view",
      "type": "function"
    },
    {
      "inputs": [
        {
          "internalType": "address",
          "name": "",
          "type": "address"
        }
      ],
      "name": "isOwner",
      "outputs": [
        {
          "internalType": "bool",
          "name": "",
          "type": "bool"
        }
      ],
      "stateMutability": "view",
      "type": "function"
    },
    {
      "inputs": [],
      "name": "numConfirmationsRequired",
      "outputs": [
        {
          "internalType": "uint256",
          "name": "",
          "type": "uint256"
        }
      ],
      "stateMutability": "view",
      "type": "function"
    },
    {
      "inputs": [
        {
          "internalType": "uint256",
          "name": "",
          "type": "uint256"
        }
      ],
      "name": "owners",
      "outputs": [
        {
          "internalType": "address",
          "name": "",
          "type": "address"
        }
      ],
      "stateMutability": "view",
      "type": "function"
    },
    {
      "inputs": [
        {
          "internalType": "uint256",
          "name": "_txIndex",
          "type": "uint256"
        }
      ],
      "name": "revokeConfirmation",
      "outputs": [],
      "stateMutability": "nonpayable",
      "type": "function"
    },
    {
      "inputs": [
        {
          "internalType": "address",
          "name": "_to",
          "type": "address"
        },
        {
          "internalType": "uint256",
          "name": "_value",
          "type": "uint256"
        },
        {
          "internalType": "bytes",
          "name": "_data",
          "type": "bytes"
        }
      ],
      "name": "submitTransaction",
      "outputs": [],
      "stateMutability": "nonpayable",
      "type": "function"
    },
    {
      "inputs": [
        {
          "internalType": "uint256",
          "name": "",
          "type": "uint256"
        }
      ],
      "name": "transactions",
      "outputs": [
        {
          "internalType": "address",
          "name": "to",
          "type": "address"
        },
        {
          "internalType": "uint256",
          "name": "value",
          "type": "uint256"
        },
        {
          "internalType": "bytes",
          "name": "data",
          "type": "bytes"
        },
        {
          "internalType": "bool",
          "name": "executed",
          "type": "bool"
        },
        {
          "internalType": "uint256",
          "name": "numConfirmations",
          "type": "uint256"
        }
      ],
      "stateMutability": "view",
      "type": "function"
    },
    {
      "stateMutability": "payable",
      "type": "receive"
    }
  ],
  "bytecode": "0x60806040523480156200001157600080fd5b506040516200257f3803806200257f8339818101604052810190620000379190620003e8565b600a8251111580156200004b575060008251115b6200008d576040517f08c379a0000000000000000000000000000000000000000000000000000000008152600401620000849062000500565b60405180910390fd5b6000811180156200009f575081518111155b620000e1576040517f08c379a0000000000000000000000000000000000000000000000000000000008152600401620000d89062000544565b60405180910390fd5b60005b8251811015620003085760008382815181106200012a577f4e487b7100000000000000000000000000000000000000000000000000000000600052603260045260246000fd5b60200260200101519050600073ffffffffffffffffffffffffffffffffffffffff168173ffffffffffffffffffffffffffffffffffffffff161415620001a7576040517f08c379a00000000000000000000000000000000000000000000000000000000081526004016200019e9062000522565b60405180910390fd5b600160008273ffffffffffffffffffffffffffffffffffffffff1673ffffffffffffffffffffffffffffffffffffffff16815260200190815260200160002060009054906101000a900460ff161562000237576040517f08c379a00000000000000000000000000000000000000000000000000000000081526004016200022e90620004de565b60405180910390fd5b60018060008373ffffffffffffffffffffffffffffffffffffffff1673ffffffffffffffffffffffffffffffffffffffff16815260200190815260200160002060006101000a81548160ff0219169083151502179055506000819080600181540180825580915050600190039060005260206000200160009091909190916101000a81548173ffffffffffffffffffffffffffffffffffffffff021916908373ffffffffffffffffffffffffffffffffffffffff160217905550508080620002ff9062000643565b915050620000e4565b50806002819055505050620007fe565b60006200032f62000329846200058f565b62000566565b905080838252602082019050828560208602820111156200034f57600080fd5b60005b858110156200038357816200036888826200038d565b84526020840193506020830192505060018101905062000352565b5050509392505050565b6000815190506200039e81620007ca565b92915050565b600082601f830112620003b657600080fd5b8151620003c884826020860162000318565b91505092915050565b600081519050620003e281620007e4565b92915050565b60008060408385031215620003fc57600080fd5b600083015167ffffffffffffffff8111156200041757600080fd5b6200042585828601620003a4565b92505060206200043885828601620003d1565b9150509250929050565b600062000451601083620005be565b91506200045e8262000700565b602082019050919050565b600062000478600f83620005be565b9150620004858262000729565b602082019050919050565b60006200049f600d83620005be565b9150620004ac8262000752565b602082019050919050565b6000620004c6602883620005be565b9150620004d3826200077b565b604082019050919050565b60006020820190508181036000830152620004f98162000442565b9050919050565b600060208201905081810360008301526200051b8162000469565b9050919050565b600060208201905081810360008301526200053d8162000490565b9050919050565b600060208201905081810360008301526200055f81620004b7565b9050919050565b60006200057262000585565b90506200058082826200060d565b919050565b6000604051905090565b600067ffffffffffffffff821115620005ad57620005ac620006c0565b5b602082029050602081019050919050565b600082825260208201905092915050565b6000620005dc82620005e3565b9050919050565b600073ffffffffffffffffffffffffffffffffffffffff82169050919050565b6000819050919050565b6200061882620006ef565b810181811067ffffffffffffffff821117156200063a5762000639620006c0565b5b80604052505050565b6000620006508262000603565b91507fffffffffffffffffffffffffffffffffffffffffffffffffffffffffffffffff82141562000686576200068562000691565b5b600182019050919050565b7f4e487b7100000000000000000000000000000000000000000000000000000000600052601160045260246000fd5b7f4e487b7100000000000000000000000000000000000000000000000000000000600052604160045260246000fd5b6000601f19601f8301169050919050565b7f6f776e6572206e6f7420756e6971756500000000000000000000000000000000600082015250565b7f6f776e6572732072657175697265640000000000000000000000000000000000600082015250565b7f696e76616c6964206f776e657200000000000000000000000000000000000000600082015250565b7f696e76616c6964206e756d626572206f6620726571756972656420636f6e666960008201527f726d6174696f6e73000000000000000000000000000000000000000000000000602082015250565b620007d581620005cf565b8114620007e157600080fd5b50565b620007ef8162000603565b8114620007fb57600080fd5b50565b611d71806200080e6000396000f3fe6080604052600436106100c65760003560e01c80639ace38c21161007f578063c642747411610059578063c642747414610303578063d0549b851461032c578063d74f8edd14610357578063ee22610b146103825761011d565b80639ace38c21461026e578063a0e67e2b146102af578063c01a8c84146102da5761011d565b8063025e7c271461012257806320ea8d861461015f5780632e7700f0146101885780632f54bf6e146101b357806333ea3dc8146101f057806380f59a65146102315761011d565b3661011d573373ffffffffffffffffffffffffffffffffffffffff167f90890809c654f11d6e72a28fa60149770a0d11ec6c92319d6ceb2bb0a4ea1a15344760405161011392919061198a565b60405180910390a2005b600080fd5b34801561012e57600080fd5b50610149600480360381019061014491906114a3565b6103ab565b60405161015691906117ab565b60405180910390f35b34801561016b57600080fd5b50610186600480360381019061018191906114a3565b6103ea565b005b34801561019457600080fd5b5061019d610710565b6040516101aa919061193d565b60405180910390f35b3480156101bf57600080fd5b506101da60048036038101906101d5919061140e565b61071d565b6040516101e79190611842565b60405180910390f35b3480156101fc57600080fd5b50610217600480360381019061021291906114a3565b61073d565b6040516102289594939291906117c6565b60405180910390f35b34801561023d57600080fd5b50610258600480360381019061025391906114cc565b610876565b6040516102659190611842565b60405180910390f35b34801561027a57600080fd5b50610295600480360381019061029091906114a3565b6108a5565b6040516102a69594939291906117c6565b60405180910390f35b3480156102bb57600080fd5b506102c46109a0565b6040516102d19190611820565b60405180910390f35b3480156102e657600080fd5b5061030160048036038101906102fc91906114a3565b610a2e565b005b34801561030f57600080fd5b5061032a60048036038101906103259190611437565b610d57565b005b34801561033857600080fd5b50610341610fa8565b60405161034e919061193d565b60405180910390f35b34801561036357600080fd5b5061036c610fae565b604051610379919061193d565b60405180910390f35b34801561038e57600080fd5b506103a960048036038101906103a491906114a3565b610fb3565b005b600081815481106103bb57600080fd5b906000526020600020016000915054906101000a900473ffffffffffffffffffffffffffffffffffffffff1681565b600160003373ffffffffffffffffffffffffffffffffffffffff1673ffffffffffffffffffffffffffffffffffffffff16815260200190815260200160002060009054906101000a900460ff16610476576040517f08c379a000000000000000000000000000000000000000000000000000000000815260040161046d9061191d565b60405180910390fd5b8060048054905081106104be576040517f08c379a00000000000000000000000000000000000000000000000000000000081526004016104b59061187d565b60405180910390fd5b81600481815481106104f9577f4e487b7100000000000000000000000000000000000000000000000000000000600052603260045260246000fd5b906000526020600020906005020160030160009054906101000a900460ff1615610558576040517f08c379a000000000000000000000000000000000000000000000000000000000815260040161054f906118bd565b60405180910390fd5b600060048481548110610594577f4e487b7100000000000000000000000000000000000000000000000000000000600052603260045260246000fd5b906000526020600020906005020190506003600085815260200190815260200160002060003373ffffffffffffffffffffffffffffffffffffffff1673ffffffffffffffffffffffffffffffffffffffff16815260200190815260200160002060009054906101000a900460ff16610641576040517f08c379a0000000000000000000000000000000000000000000000000000000008152600401610638906118dd565b60405180910390fd5b60018160040160008282546106569190611a8f565b9250508190555060006003600086815260200190815260200160002060003373ffffffffffffffffffffffffffffffffffffffff1673ffffffffffffffffffffffffffffffffffffffff16815260200190815260200160002060006101000a81548160ff021916908315150217905550833373ffffffffffffffffffffffffffffffffffffffff167ff0dca620e2e81f7841d07bcc105e1704fb01475b278a9d4c236e1c62945edd5560405160405180910390a350505050565b6000600480549050905090565b60016020528060005260406000206000915054906101000a900460ff1681565b6000806060600080600060048781548110610781577f4e487b7100000000000000000000000000000000000000000000000000000000600052603260045260246000fd5b906000526020600020906005020190508060000160009054906101000a900473ffffffffffffffffffffffffffffffffffffffff168160010154826002018360030160009054906101000a900460ff1684600401548280546107e290611b4d565b80601f016020809104026020016040519081016040528092919081815260200182805461080e90611b4d565b801561085b5780601f106108305761010080835404028352916020019161085b565b820191906000526020600020905b81548152906001019060200180831161083e57829003601f168201915b50505050509250955095509550955095505091939590929450565b60036020528160005260406000206020528060005260406000206000915091509054906101000a900460ff1681565b600481815481106108b557600080fd5b90600052602060002090600502016000915090508060000160009054906101000a900473ffffffffffffffffffffffffffffffffffffffff169080600101549080600201805461090490611b4d565b80601f016020809104026020016040519081016040528092919081815260200182805461093090611b4d565b801561097d5780601f106109525761010080835404028352916020019161097d565b820191906000526020600020905b81548152906001019060200180831161096057829003601f168201915b5050505050908060030160009054906101000a900460ff16908060040154905085565b60606000805480602002602001604051908101604052809291908181526020018280548015610a2457602002820191906000526020600020905b8160009054906101000a900473ffffffffffffffffffffffffffffffffffffffff1673ffffffffffffffffffffffffffffffffffffffff16815260200190600101908083116109da575b5050505050905090565b600160003373ffffffffffffffffffffffffffffffffffffffff1673ffffffffffffffffffffffffffffffffffffffff16815260200190815260200160002060009054906101000a900460ff16610aba576040517f08c379a0000000000000000000000000000000000000000000000000000000008152600401610ab19061191d565b60405180910390fd5b806004805490508110610b02576040517f08c379a0000000000000000000000000000000000000000000000000000000008152600401610af99061187d565b60405180910390fd5b8160048181548110610b3d577f4e487b7100000000000000000000000000000000000000000000000000000000600052603260045260246000fd5b906000526020600020906005020160030160009054906101000a900460ff1615610b9c576040517f08c379a0000000000000000000000000000000000000000000000000000000008152600401610b93906118bd565b60405180910390fd5b826003600082815260200190815260200160002060003373ffffffffffffffffffffffffffffffffffffffff1673ffffffffffffffffffffffffffffffffffffffff16815260200190815260200160002060009054906101000a900460ff1615610c3b576040517f08c379a0000000000000000000000000000000000000000000000000000000008152600401610c329061189d565b60405180910390fd5b600060048581548110610c77577f4e487b7100000000000000000000000000000000000000000000000000000000600052603260045260246000fd5b906000526020600020906005020190506001816004016000828254610c9c9190611a39565b9250508190555060016003600087815260200190815260200160002060003373ffffffffffffffffffffffffffffffffffffffff1673ffffffffffffffffffffffffffffffffffffffff16815260200190815260200160002060006101000a81548160ff021916908315150217905550843373ffffffffffffffffffffffffffffffffffffffff167f5cbe105e36805f7820e291f799d5794ff948af2a5f664e580382defb6339004160405160405180910390a35050505050565b600160003373ffffffffffffffffffffffffffffffffffffffff1673ffffffffffffffffffffffffffffffffffffffff16815260200190815260200160002060009054906101000a900460ff16610de3576040517f08c379a0000000000000000000000000000000000000000000000000000000008152600401610dda9061191d565b60405180910390fd5b6000600480549050905060046040518060a001604052808773ffffffffffffffffffffffffffffffffffffffff16815260200186815260200185858080601f016020809104026020016040519081016040528093929190818152602001838380828437600081840152601f19601f8201169050808301925050505050505081526020016000151581526020016000815250908060018154018082558091505060019003906000526020600020906005020160009091909190915060008201518160000160006101000a81548173ffffffffffffffffffffffffffffffffffffffff021916908373ffffffffffffffffffffffffffffffffffffffff160217905550602082015181600101556040820151816002019080519060200190610f0a9291906112f7565b5060608201518160030160006101000a81548160ff0219169083151502179055506080820151816004015550508473ffffffffffffffffffffffffffffffffffffffff16813373ffffffffffffffffffffffffffffffffffffffff167fd5a05bf70715ad82a09a756320284a1b54c9ff74cd0f8cce6219e79b563fe59d878787604051610f9993929190611958565b60405180910390a45050505050565b60025481565b600a81565b600160003373ffffffffffffffffffffffffffffffffffffffff1673ffffffffffffffffffffffffffffffffffffffff16815260200190815260200160002060009054906101000a900460ff1661103f576040517f08c379a00000000000000000000000000000000000000000000000000000000081526004016110369061191d565b60405180910390fd5b806004805490508110611087576040517f08c379a000000000000000000000000000000000000000000000000000000000815260040161107e9061187d565b60405180910390fd5b81600481815481106110c2577f4e487b7100000000000000000000000000000000000000000000000000000000600052603260045260246000fd5b906000526020600020906005020160030160009054906101000a900460ff1615611121576040517f08c379a0000000000000000000000000000000000000000000000000000000008152600401611118906118bd565b60405180910390fd5b60006004848154811061115d577f4e487b7100000000000000000000000000000000000000000000000000000000600052603260045260246000fd5b90600052602060002090600502019050600254816004015410156111b6576040517f08c379a00000000000000000000000000000000000000000000000000000000081526004016111ad906118fd565b60405180910390fd5b60018160030160006101000a81548160ff02191690831515021790555060008160000160009054906101000a900473ffffffffffffffffffffffffffffffffffffffff1673ffffffffffffffffffffffffffffffffffffffff168260010154836002016040516112269190611794565b60006040518083038185875af1925050503d8060008114611263576040519150601f19603f3d011682016040523d82523d6000602084013e611268565b606091505b50509050806112ac576040517f08c379a00000000000000000000000000000000000000000000000000000000081526004016112a39061185d565b60405180910390fd5b843373ffffffffffffffffffffffffffffffffffffffff167f5445f318f4f5fcfb66592e68e0cc5822aa15664039bd5f0ffde24c5a8142b1ac60405160405180910390a35050505050565b82805461130390611b4d565b90600052602060002090601f016020900481019282611325576000855561136c565b82601f1061133e57805160ff191683800117855561136c565b8280016001018555821561136c579182015b8281111561136b578251825591602001919060010190611350565b5b509050611379919061137d565b5090565b5b8082111561139657600081600090555060010161137e565b5090565b6000813590506113a981611d0d565b92915050565b60008083601f8401126113c157600080fd5b8235905067ffffffffffffffff8111156113da57600080fd5b6020830191508360018202830111156113f257600080fd5b9250929050565b60008135905061140881611d24565b92915050565b60006020828403121561142057600080fd5b600061142e8482850161139a565b91505092915050565b6000806000806060858703121561144d57600080fd5b600061145b8782880161139a565b945050602061146c878288016113f9565b935050604085013567ffffffffffffffff81111561148957600080fd5b611495878288016113af565b925092505092959194509250565b6000602082840312156114b557600080fd5b60006114c3848285016113f9565b91505092915050565b600080604083850312156114df57600080fd5b60006114ed858286016113f9565b92505060206114fe8582860161139a565b9150509250929050565b60006115148383611520565b60208301905092915050565b61152981611ac3565b82525050565b61153881611ac3565b82525050565b6000611549826119d8565b61155381856119fb565b935061155e836119b3565b8060005b8381101561158f5781516115768882611508565b9750611581836119ee565b925050600181019050611562565b5085935050505092915050565b6115a581611ad5565b82525050565b60006115b78385611a0c565b93506115c4838584611b0b565b6115cd83611bdd565b840190509392505050565b60006115e3826119e3565b6115ed8185611a0c565b93506115fd818560208601611b1a565b61160681611bdd565b840191505092915050565b6000815461161e81611b4d565b6116288186611a1d565b94506001821660008114611643576001811461165457611687565b60ff19831686528186019350611687565b61165d856119c3565b60005b8381101561167f57815481890152600182019150602081019050611660565b838801955050505b50505092915050565b600061169d600983611a28565b91506116a882611bee565b602082019050919050565b60006116c0601183611a28565b91506116cb82611c17565b602082019050919050565b60006116e3601483611a28565b91506116ee82611c40565b602082019050919050565b6000611706601383611a28565b915061171182611c69565b602082019050919050565b6000611729601083611a28565b915061173482611c92565b602082019050919050565b600061174c601183611a28565b915061175782611cbb565b602082019050919050565b600061176f600983611a28565b915061177a82611ce4565b602082019050919050565b61178e81611b01565b82525050565b60006117a08284611611565b915081905092915050565b60006020820190506117c0600083018461152f565b92915050565b600060a0820190506117db600083018861152f565b6117e86020830187611785565b81810360408301526117fa81866115d8565b9050611809606083018561159c565b6118166080830184611785565b9695505050505050565b6000602082019050818103600083015261183a818461153e565b905092915050565b6000602082019050611857600083018461159c565b92915050565b6000602082019050818103600083015261187681611690565b9050919050565b60006020820190508181036000830152611896816116b3565b9050919050565b600060208201905081810360008301526118b6816116d6565b9050919050565b600060208201905081810360008301526118d6816116f9565b9050919050565b600060208201905081810360008301526118f68161171c565b9050919050565b600060208201905081810360008301526119168161173f565b9050919050565b6000602082019050818103600083015261193681611762565b9050919050565b60006020820190506119526000830184611785565b92915050565b600060408201905061196d6000830186611785565b81810360208301526119808184866115ab565b9050949350505050565b600060408201905061199f6000830185611785565b6119ac6020830184611785565b9392505050565b6000819050602082019050919050565b60008190508160005260206000209050919050565b600081519050919050565b600081519050919050565b6000602082019050919050565b600082825260208201905092915050565b600082825260208201905092915050565b600081905092915050565b600082825260208201905092915050565b6000611a4482611b01565b9150611a4f83611b01565b9250827fffffffffffffffffffffffffffffffffffffffffffffffffffffffffffffffff03821115611a8457611a83611b7f565b5b828201905092915050565b6000611a9a82611b01565b9150611aa583611b01565b925082821015611ab857611ab7611b7f565b5b828203905092915050565b6000611ace82611ae1565b9050919050565b60008115159050919050565b600073ffffffffffffffffffffffffffffffffffffffff82169050919050565b6000819050919050565b82818337600083830152505050565b60005b83811015611b38578082015181840152602081019050611b1d565b83811115611b47576000848401525b50505050565b60006002820490506001821680611b6557607f821691505b60208210811415611b7957611b78611bae565b5b50919050565b7f4e487b7100000000000000000000000000000000000000000000000000000000600052601160045260246000fd5b7f4e487b7100000000000000000000000000000000000000000000000000000000600052602260045260246000fd5b6000601f19601f8301169050919050565b7f7478206661696c65640000000000000000000000000000000000000000000000600082015250565b7f747820646f6573206e6f74206578697374000000000000000000000000000000600082015250565b7f747820616c726561647920636f6e6669726d6564000000000000000000000000600082015250565b7f747820616c726561647920657865637574656400000000000000000000000000600082015250565b7f7478206e6f7420636f6e6669726d656400000000000000000000000000000000600082015250565b7f63616e6e6f742065786563757465207478000000000000000000000000000000600082015250565b7f6e6f74206f776e65720000000000000000000000000000000000000000000000600082015250565b611d1681611ac3565b8114611d2157600080fd5b50565b611d2d81611b01565b8114611d3857600080fd5b5056fea26469706673582212209e16f561635ebb4c63fbace0e63e8e135d7c35f2272c53913670a1ed180d9c7e64736f6c63430008040033",
  "linkReferences": {},
  "deployedLinkReferences": {}
}